{"abi":[{"type":"receive","stateMutability":"payable"},{"type":"function","name":"UPGRADE_INTERFACE_VERSION","inputs":[],"outputs":[{"name":"","type":"string","internalType":"string"}],"stateMutability":"view"},{"type":"function","name":"allowlistRecipient","inputs":[{"name":"_destinationChainSelector","type":"uint64","internalType":"uint64"},{"name":"_destinationChainRecipient","type":"address","internalType":"address"},{"name":"allowed","type":"bool","internalType":"bool"}],"outputs":[],"stateMutability":"nonpayable"},{"type":"function","name":"allowlistSender","inputs":[{"name":"_sourceChainSelector","type":"uint64","internalType":"uint64"},{"name":"_sourceChainSender","type":"address","internalType":"address"},{"name":"allowed","type":"bool","internalType":"bool"}],"outputs":[],"stateMutability":"nonpayable"},{"type":"function","name":"allowlistedRecipients","inputs":[{"name":"","type":"uint64","internalType":"uint64"},{"name":"","type":"address","internalType":"address"}],"outputs":[{"name":"","type":"bool","internalType":"bool"}],"stateMutability":"view"},{"type":"function","name":"allowlistedSenders","inputs":[{"name":"","type":"uint64","internalType":"uint64"},{"name":"","type":"address","internalType":"address"}],"outputs":[{"name":"","type":"bool","internalType":"bool"}],"stateMutability":"view"},{"type":"function","name":"ccipReceive","inputs":[{"name":"message","type":"tuple","internalType":"struct Client.Any2EVMMessage","components":[{"name":"messageId","type":"bytes32","internalType":"bytes32"},{"name":"sourceChainSelector","type":"uint64","internalType":"uint64"},{"name":"sender","type":"bytes","internalType":"bytes"},{"name":"data","type":"bytes","internalType":"bytes"},{"name":"destTokenAmounts","type":"tuple[]","internalType":"struct Client.EVMTokenAmount[]","components":[{"name":"token","type":"address","internalType":"address"},{"name":"amount","type":"uint256","internalType":"uint256"}]}]}],"outputs":[],"stateMutability":"nonpayable"},{"type":"function","name":"extraArgsPerChain","inputs":[{"name":"","type":"uint64","internalType":"uint64"}],"outputs":[{"name":"","type":"bytes","internalType":"bytes"}],"stateMutability":"view"},{"type":"function","name":"getFee","inputs":[{"name":"_destinationChainSelector","type":"uint64","internalType":"uint64"},{"name":"_destinationChainRecipient","type":"address","internalType":"address"},{"name":"_distributionData","type":"bytes","internalType":"bytes"},{"name":"_extraArgs","type":"bytes","internalType":"bytes"},{"name":"_payFeesInLink","type":"bool","internalType":"bool"}],"outputs":[{"name":"fee","type":"uint256","internalType":"uint256"}],"stateMutability":"view"},{"type":"function","name":"getRouter","inputs":[],"outputs":[{"name":"","type":"address","internalType":"address"}],"stateMutability":"view"},{"type":"function","name":"initialize","inputs":[{"name":"_router","type":"address","internalType":"address"},{"name":"_link","type":"address","internalType":"address"},{"name":"_rare","type":"address","internalType":"address"},{"name":"admin","type":"address","internalType":"address"}],"outputs":[],"stateMutability":"nonpayable"},{"type":"function","name":"owner","inputs":[],"outputs":[{"name":"","type":"address","internalType":"address"}],"stateMutability":"view"},{"type":"function","name":"pause","inputs":[],"outputs":[],"stateMutability":"nonpayable"},{"type":"function","name":"paused","inputs":[],"outputs":[{"name":"","type":"bool","internalType":"bool"}],"stateMutability":"view"},{"type":"function","name":"proxiableUUID","inputs":[],"outputs":[{"name":"","type":"bytes32","internalType":"bytes32"}],"stateMutability":"view"},{"type":"function","name":"renounceOwnership","inputs":[],"outputs":[],"stateMutability":"nonpayable"},{"type":"function","name":"s_linkToken","inputs":[],"outputs":[{"name":"","type":"address","internalType":"address"}],"stateMutability":"view"},{"type":"function","name":"s_rareToken","inputs":[],"outputs":[{"name":"","type":"address","internalType":"address"}],"stateMutability":"view"},{"type":"function","name":"send","inputs":[{"name":"_destinationChainSelector","type":"uint64","internalType":"uint64"},{"name":"_destinationChainRecipient","type":"address","internalType":"address"},{"name":"_distributionData","type":"bytes","internalType":"bytes"},{"name":"_extraArgs","type":"bytes","internalType":"bytes"},{"name":"_payFeesInLink","type":"bool","internalType":"bool"}],"outputs":[],"stateMutability":"payable"},{"type":"function","name":"setExtraArgs","inputs":[{"name":"_destinationChainSelector","type":"uint64","internalType":"uint64"},{"name":"_gasLimit","type":"uint256","internalType":"uint256"}],"outputs":[],"stateMutability":"nonpayable"},{"type":"function","name":"supportsInterface","inputs":[{"name":"interfaceId","type":"bytes4","internalType":"bytes4"}],"outputs":[{"name":"","type":"bool","internalType":"bool"}],"stateMutability":"view"},{"type":"function","name":"transferOwnership","inputs":[{"name":"newOwner","type":"address","internalType":"address"}],"outputs":[],"stateMutability":"nonpayable"},{"type":"function","name":"unpause","inputs":[],"outputs":[],"stateMutability":"nonpayable"},{"type":"function","name":"upgradeToAndCall","inputs":[{"name":"newImplementation","type":"address","internalType":"address"},{"name":"data","type":"bytes","internalType":"bytes"}],"outputs":[],"stateMutability":"payable"},{"type":"function","name":"withdraw","inputs":[{"name":"_beneficiary","type":"address","internalType":"address payable"}],"outputs":[],"stateMutability":"nonpayable"},{"type":"function","name":"withdrawToken","inputs":[{"name":"_beneficiary","type":"address","internalType":"address"},{"name":"_token","type":"address","internalType":"address"}],"outputs":[],"stateMutability":"nonpayable"},{"type":"event","name":"ExtraArgsSet","inputs":[{"name":"destinationChainSelector","type":"uint64","indexed":true,"internalType":"uint64"},{"name":"extraArgs","type":"bytes","indexed":false,"internalType":"bytes"}],"anonymous":false},{"type":"event","name":"Initialized","inputs":[{"name":"version","type":"uint64","indexed":false,"internalType":"uint64"}],"anonymous":false},{"type":"event","name":"MessageReceived","inputs":[{"name":"messageId","type":"bytes32","indexed":true,"internalType":"bytes32"},{"name":"sourceChainSelector","type":"uint64","indexed":true,"internalType":"uint64"},{"name":"sourceChainSender","type":"address","indexed":true,"internalType":"address"}],"anonymous":false},{"type":"event","name":"MessageSent","inputs":[{"name":"messageId","type":"bytes32","indexed":true,"internalType":"bytes32"},{"name":"destinationChainSelector","type":"uint64","indexed":true,"internalType":"uint64"},{"name":"destinationChainRecipient","type":"address","indexed":true,"internalType":"address"},{"name":"fee","type":"uint256","indexed":false,"internalType":"uint256"},{"name":"payFeesInLink","type":"bool","indexed":false,"internalType":"bool"}],"anonymous":false},{"type":"event","name":"OwnershipTransferred","inputs":[{"name":"previousOwner","type":"address","indexed":true,"internalType":"address"},{"name":"newOwner","type":"address","indexed":true,"internalType":"address"}],"anonymous":false},{"type":"event","name":"Paused","inputs":[{"name":"account","type":"address","indexed":false,"internalType":"address"}],"anonymous":false},{"type":"event","name":"RecipientAllowlisted","inputs":[{"name":"destinationChainSelector","type":"uint64","indexed":true,"internalType":"uint64"},{"name":"destinationChainRecipient","type":"address","indexed":true,"internalType":"address"},{"name":"allowed","type":"bool","indexed":false,"internalType":"bool"}],"anonymous":false},{"type":"event","name":"SenderAllowlisted","inputs":[{"name":"sourceChainSelector","type":"uint64","indexed":true,"internalType":"uint64"},{"name":"sourceChainSender","type":"address","indexed":true,"internalType":"address"},{"name":"allowed","type":"bool","indexed":false,"internalType":"bool"}],"anonymous":false},{"type":"event","name":"Unpaused","inputs":[{"name":"account","type":"address","indexed":false,"internalType":"address"}],"anonymous":false},{"type":"event","name":"Upgraded","inputs":[{"name":"implementation","type":"address","indexed":true,"internalType":"address"}],"anonymous":false},{"type":"error","name":"AddressEmptyCode","inputs":[{"name":"target","type":"address","internalType":"address"}]},{"type":"error","name":"ERC1967InvalidImplementation","inputs":[{"name":"implementation","type":"address","internalType":"address"}]},{"type":"error","name":"ERC1967NonPayable","inputs":[]},{"type":"error","name":"EnforcedPause","inputs":[]},{"type":"error","name":"ExpectedPause","inputs":[]},{"type":"error","name":"FailedCall","inputs":[]},{"type":"error","name":"FailedToWithdrawEth","inputs":[{"name":"sender","type":"address","internalType":"address"},{"name":"beneficiary","type":"address","internalType":"address"},{"name":"amount","type":"uint256","internalType":"uint256"}]},{"type":"error","name":"InsufficientBalance","inputs":[{"name":"balance","type":"uint256","internalType":"uint256"},{"name":"needed","type":"uint256","internalType":"uint256"}]},{"type":"error","name":"InsufficientEthForFee","inputs":[{"name":"ethSent","type":"uint256","internalType":"uint256"},{"name":"fee","type":"uint256","internalType":"uint256"}]},{"type":"error","name":"InvalidInitialization","inputs":[]},{"type":"error","name":"InvalidRouter","inputs":[{"name":"router","type":"address","internalType":"address"}]},{"type":"error","name":"NotInAllowlist","inputs":[{"name":"chainSelector","type":"uint64","internalType":"uint64"},{"name":"account","type":"address","internalType":"address"}]},{"type":"error","name":"NotInitializing","inputs":[]},{"type":"error","name":"NothingToWithdraw","inputs":[]},{"type":"error","name":"OwnableInvalidOwner","inputs":[{"name":"owner","type":"address","internalType":"address"}]},{"type":"error","name":"OwnableUnauthorizedAccount","inputs":[{"name":"account","type":"address","internalType":"address"}]},{"type":"error","name":"RecipientsAndAmountsLengthMismatch","inputs":[]},{"type":"error","name":"RefundFailed","inputs":[{"name":"recipient","type":"address","internalType":"address"},{"name":"amount","type":"uint256","internalType":"uint256"}]},{"type":"error","name":"SafeERC20FailedOperation","inputs":[{"name":"token","type":"address","internalType":"address"}]},{"type":"error","name":"UUPSUnauthorizedCallContext","inputs":[]},{"type":"error","name":"UUPSUnsupportedProxiableUUID","inputs":[{"name":"slot","type":"bytes32","internalType":"bytes32"}]},{"type":"error","name":"ZeroAddressUnsupported","inputs":[]}],"bytecode":{"object":"0x60a06040523060805234801562000014575f80fd5b506200001f62000025565b620000d9565b7ff0c57e16840df040f15088dc2f81fe391c3923bec73e23a9662efc9c229c6a00805468010000000000000000900460ff1615620000765760405163f92ee8a960e01b815260040160405180910390fd5b80546001600160401b0390811614620000d65780546001600160401b0319166001600160401b0390811782556040519081527fc7f505b2f371ae2175ee4913f4499e1f2633a7b5936321eed1cdaeb6115181d29060200160405180910390a15b50565b608051612a77620001005f395f81816113090152818161133201526114b00152612a775ff3fe608060405260043610610191575f3560e01c80638456cb59116100dc578063944da83311610087578063bf02568111610062578063bf025681146104bb578063f039a009146104da578063f2fde38b146104f9578063f8c8765e14610518575f80fd5b8063944da8331461042b578063ad3cb1cc1461044a578063b0f479a11461049f575f80fd5b806388999627116100b757806388999627146103a357806389590ca8146103dc5780638da5cb5b146103ef575f80fd5b80638456cb591461035157806384823c901461036557806385572ffb14610384575f80fd5b806352d1902d1161013c578063715018a611610117578063715018a6146102e7578063733c52f9146102fb5780637725135b14610332575f80fd5b806352d1902d14610270578063569236eb146102925780635c975abb146102b1575f80fd5b80633f4ba83a1161016c5780633f4ba83a1461022a5780634f1ef2861461023e57806351cff8d914610251575f80fd5b806301ffc9a71461019c578063039faeb0146101d05780633aeac4e114610209575f80fd5b3661019857005b5f80fd5b3480156101a7575f80fd5b506101bb6101b6366004612036565b610537565b60405190151581526020015b60405180910390f35b3480156101db575f80fd5b506101bb6101ea3660046120a5565b600260209081525f928352604080842090915290825290205460ff1681565b348015610214575f80fd5b506102286102233660046120da565b6105cf565b005b348015610235575f80fd5b50610228610709565b61022861024c3660046121f3565b61071b565b34801561025c575f80fd5b5061022861026b366004612240565b61073a565b34801561027b575f80fd5b5061028461080f565b6040519081526020016101c7565b34801561029d575f80fd5b506102286102ac36600461225b565b61083d565b3480156102bc575f80fd5b507fcd5ed15c6e187e77e9aee88184c21f4f2182ab5827cb3b7e07fbedcd63f033005460ff166101bb565b3480156102f2575f80fd5b5061022861092d565b348015610306575f80fd5b5060055461031a906001600160a01b031681565b6040516001600160a01b0390911681526020016101c7565b34801561033d575f80fd5b5060045461031a906001600160a01b031681565b34801561035c575f80fd5b5061022861093e565b348015610370575f80fd5b5061022861037f366004612290565b61094e565b34801561038f575f80fd5b5061022861039e3660046122d6565b6109cd565b3480156103ae575f80fd5b506101bb6103bd3660046120a5565b600160209081525f928352604080842090915290825290205460ff1681565b6102286103ea36600461230d565b610a0d565b3480156103fa575f80fd5b507f9016d09d72d40fdae2fd8ceac6b6234c7706214fd39c1cd1e609a0528c199300546001600160a01b031661031a565b348015610436575f80fd5b5061028461044536600461230d565b610cdd565b348015610455575f80fd5b506104926040518060400160405280600581526020017f352e302e3000000000000000000000000000000000000000000000000000000081525081565b6040516101c791906123f0565b3480156104aa575f80fd5b505f546001600160a01b031661031a565b3480156104c6575f80fd5b506104926104d5366004612402565b610eaf565b3480156104e5575f80fd5b506102286104f4366004612290565b610f46565b348015610504575f80fd5b50610228610513366004612240565b610fbc565b348015610523575f80fd5b5061022861053236600461241b565b61100f565b5f7fffffffff0000000000000000000000000000000000000000000000000000000082167f85572ffb0000000000000000000000000000000000000000000000000000000014806105c957507fffffffff0000000000000000000000000000000000000000000000000000000082167f01ffc9a700000000000000000000000000000000000000000000000000000000145b92915050565b6105d7611218565b6040517f70a082310000000000000000000000000000000000000000000000000000000081523060048201525f906001600160a01b038316906370a0823190602401602060405180830381865afa158015610634573d5f803e3d5ffd5b505050506040513d601f19601f820116820180604052508101906106589190612474565b9050805f0361067a57604051630686827b60e51b815260040160405180910390fd5b6040517fa9059cbb0000000000000000000000000000000000000000000000000000000081526001600160a01b0384811660048301526024820183905283169063a9059cbb906044016020604051808303815f875af11580156106df573d5f803e3d5ffd5b505050506040513d601f19601f82011682018060405250810190610703919061248b565b50505050565b610711611218565b61071961128c565b565b6107236112fe565b61072c826113b5565b61073682826113bd565b5050565b610742611218565b475f81900361076457604051630686827b60e51b815260040160405180910390fd5b5f826001600160a01b0316826040515f6040518083038185875af1925050503d805f81146107ad576040519150601f19603f3d011682016040523d82523d5f602084013e6107b2565b606091505b505090508061080a576040517f9d11f5630000000000000000000000000000000000000000000000000000000081523360048201526001600160a01b0384166024820152604481018390526064015b60405180910390fd5b505050565b5f6108186114a5565b507f360894a13ba1a3210667c828492db98dca3e2076cc3735a920a3ca505d382bbc90565b610845611218565b60408051602080820183529083905281516024808201859052835180830390910181526044909101909252810180517bffffffffffffffffffffffffffffffffffffffffffffffffffffffff167f97a657c90000000000000000000000000000000000000000000000000000000017905267ffffffffffffffff83165f908152600360205260409020906108d99082612529565b5067ffffffffffffffff82165f818152600360205260409081902090517f25f4887ac9329371411c2984321de49ca898b00baf4b256827a238b920b2803391610921916125e9565b60405180910390a25050565b610935611218565b6107195f6114ee565b610946611218565b61071961156b565b610956611218565b67ffffffffffffffff83165f8181526001602090815260408083206001600160a01b03871680855290835292819020805460ff191686151590811790915590519081529192917fee43ac303444b0c8d82e2405506aaa0bde910d74c0397efcd0c3e6753d544ca891015b60405180910390a3505050565b5f546001600160a01b031633146109f9576040516335fdcccd60e21b8152336004820152602401610801565b610a0a610a0582612729565b6115c6565b50565b67ffffffffffffffff85165f9081526001602090815260408083206001600160a01b03881684529091529020548590859060ff16610a7957604051630b15942d60e41b815267ffffffffffffffff831660048201526001600160a01b0382166024820152604401610801565b610a81611742565b5f8086806020019051810190610a97919061282d565b915091508051825114610ad6576040517f441d33a100000000000000000000000000000000000000000000000000000000815260040160405180910390fd5b5f805b8251811015610b1157828181518110610af457610af46128e2565b602002602001015182610b07919061290a565b9150600101610ad9565b506040805160a0810182526001600160a01b038b1660c0808301919091528251808303909101815260e082018352815260208082018b905282515f8082529181018452909282019083610b85565b604080518082019091525f8082526020820152815260200190600190039081610b5f5790505b50815260200188610b96575f610ba3565b6004546001600160a01b03165b6001600160a01b031681526020015f8a5111610c5d5767ffffffffffffffff8d165f9081526003602052604090208054610bdc906124a6565b80601f0160208091040260200160405190810160405280929190818152602001828054610c08906124a6565b8015610c535780601f10610c2a57610100808354040283529160200191610c53565b820191905f5260205f20905b815481529060010190602001808311610c3657829003601f168201915b5050505050610c5f565b895b905290505f80610c708d848b61179e565b915091508b6001600160a01b03168d67ffffffffffffffff16837f1db8b02534131df99195eac316e72e12017fac36b8abdecd97b7d93b39bf7bca848d604051610cc69291909182521515602082015260400190565b60405180910390a450505050505050505050505050565b6040805160a081019091526001600160a01b03851660c08201525f9081908060e0810160408051808303601f19018152918152908252602080830189905281515f8082529181018352929091019190610d57565b604080518082019091525f8082526020820152815260200190600190039081610d315790505b50815260200184610d68575f610d75565b6004546001600160a01b03165b6001600160a01b031681526020015f865111610e2f5767ffffffffffffffff89165f9081526003602052604090208054610dae906124a6565b80601f0160208091040260200160405190810160405280929190818152602001828054610dda906124a6565b8015610e255780601f10610dfc57610100808354040283529160200191610e25565b820191905f5260205f20905b815481529060010190602001808311610e0857829003601f168201915b5050505050610e31565b855b90525f546040516320487ded60e01b81529192506001600160a01b0316906320487ded90610e65908a90859060040161291d565b602060405180830381865afa158015610e80573d5f803e3d5ffd5b505050506040513d601f19601f82011682018060405250810190610ea49190612474565b979650505050505050565b60036020525f908152604090208054610ec7906124a6565b80601f0160208091040260200160405190810160405280929190818152602001828054610ef3906124a6565b8015610f3e5780601f10610f1557610100808354040283529160200191610f3e565b820191905f5260205f20905b815481529060010190602001808311610f2157829003601f168201915b505050505081565b610f4e611218565b67ffffffffffffffff83165f8181526002602090815260408083206001600160a01b03871680855290835292819020805460ff191686151590811790915590519081529192917f9a239a399a3630c36025f8c4b64b701240016edc1e1fdb83741c0c52f5d743d791016109c0565b610fc4611218565b6001600160a01b038116611006576040517f1e4fbdf70000000000000000000000000000000000000000000000000000000081525f6004820152602401610801565b610a0a816114ee565b7ff0c57e16840df040f15088dc2f81fe391c3923bec73e23a9662efc9c229c6a00805468010000000000000000810460ff16159067ffffffffffffffff165f811580156110595750825b90505f8267ffffffffffffffff1660011480156110755750303b155b905081158015611083575080155b156110ba576040517ff92ee8a900000000000000000000000000000000000000000000000000000000815260040160405180910390fd5b845467ffffffffffffffff1916600117855583156110ee57845468ff00000000000000001916680100000000000000001785555b6001600160a01b03891661111557604051637827912560e01b815260040160405180910390fd5b6001600160a01b03881661113c57604051637827912560e01b815260040160405180910390fd5b6001600160a01b03871661116357604051637827912560e01b815260040160405180910390fd5b61116c89611aa4565b611174611b0c565b61117d86611b1c565b611185611b2d565b600480546001600160a01b03808b1673ffffffffffffffffffffffffffffffffffffffff199283161790925560058054928a1692909116919091179055831561120d57845468ff000000000000000019168555604051600181527fc7f505b2f371ae2175ee4913f4499e1f2633a7b5936321eed1cdaeb6115181d29060200160405180910390a15b505050505050505050565b3361124a7f9016d09d72d40fdae2fd8ceac6b6234c7706214fd39c1cd1e609a0528c199300546001600160a01b031690565b6001600160a01b031614610719576040517f118cdaa7000000000000000000000000000000000000000000000000000000008152336004820152602401610801565b611294611b35565b7fcd5ed15c6e187e77e9aee88184c21f4f2182ab5827cb3b7e07fbedcd63f03300805460ff191681557f5db9ee0a495bf2e6ff9c91a7834c1ba4fdd244a5e8aa4e537bd38aeae4b073aa335b6040516001600160a01b03909116815260200160405180910390a150565b306001600160a01b037f000000000000000000000000000000000000000000000000000000000000000016148061139757507f00000000000000000000000000000000000000000000000000000000000000006001600160a01b031661138b7f360894a13ba1a3210667c828492db98dca3e2076cc3735a920a3ca505d382bbc546001600160a01b031690565b6001600160a01b031614155b156107195760405163703e46dd60e11b815260040160405180910390fd5b610a0a611218565b816001600160a01b03166352d1902d6040518163ffffffff1660e01b8152600401602060405180830381865afa925050508015611417575060408051601f3d908101601f1916820190925261141491810190612474565b60015b61143f57604051634c9c8ce360e01b81526001600160a01b0383166004820152602401610801565b7f360894a13ba1a3210667c828492db98dca3e2076cc3735a920a3ca505d382bbc811461149b576040517faa1d49a400000000000000000000000000000000000000000000000000000000815260048101829052602401610801565b61080a8383611b90565b306001600160a01b037f000000000000000000000000000000000000000000000000000000000000000016146107195760405163703e46dd60e11b815260040160405180910390fd5b7f9016d09d72d40fdae2fd8ceac6b6234c7706214fd39c1cd1e609a0528c199300805473ffffffffffffffffffffffffffffffffffffffff1981166001600160a01b03848116918217845560405192169182907f8be0079c531659141344cd1fd0a4f28419497f9722a3daafe3b4186f6b6457e0905f90a3505050565b611573611742565b7fcd5ed15c6e187e77e9aee88184c21f4f2182ab5827cb3b7e07fbedcd63f03300805460ff191660011781557f62e78cea01bee320cd4e420270b5ea74000d11b0c9f74754ebdbfc544b05a258336112e0565b5f546001600160a01b031633146115f2576040516335fdcccd60e21b8152336004820152602401610801565b8060200151816040015180602001905181019061160f91906129f8565b67ffffffffffffffff82165f9081526002602090815260408083206001600160a01b038516845290915290205460ff1661167757604051630b15942d60e41b815267ffffffffffffffff831660048201526001600160a01b0382166024820152604401610801565b5f808460600151806020019051810190611691919061282d565b815191935091505f5b818110156116d9576116d18482815181106116b7576116b76128e2565b602002602001015184838151811061080a5761080a6128e2565b60010161169a565b5085604001518060200190518101906116f291906129f8565b6001600160a01b0316866020015167ffffffffffffffff16875f01517fcde44b4f1d4a51abfed5cbe2b4ae24632539d99980c5988af6d4e2eb990c235a60405160405180910390a4505050505050565b7fcd5ed15c6e187e77e9aee88184c21f4f2182ab5827cb3b7e07fbedcd63f033005460ff1615610719576040517fd93c066500000000000000000000000000000000000000000000000000000000815260040160405180910390fd5b5f80546040516320487ded60e01b815282916001600160a01b0316906320487ded906117d0908890889060040161291d565b602060405180830381865afa1580156117eb573d5f803e3d5ffd5b505050506040513d601f19601f8201168201806040525081019061180f9190612474565b905082156119385760045461182f906001600160a01b0316333084611be5565b600480545f546040517f095ea7b30000000000000000000000000000000000000000000000000000000081526001600160a01b039182169381019390935260248301849052169063095ea7b3906044016020604051808303815f875af115801561189b573d5f803e3d5ffd5b505050506040513d601f19601f820116820180604052508101906118bf919061248b565b505f546040516396f4e9f960e01b81526001600160a01b03909116906396f4e9f9906118f1908890889060040161291d565b6020604051808303815f875af115801561190d573d5f803e3d5ffd5b505050506040513d601f19601f820116820180604052508101906119319190612474565b9150611a9c565b8034101561197b576040517fc9f9b36f00000000000000000000000000000000000000000000000000000000815234600482015260248101829052604401610801565b5f546040516396f4e9f960e01b81526001600160a01b03909116906396f4e9f99083906119ae908990899060040161291d565b60206040518083038185885af11580156119ca573d5f803e3d5ffd5b50505050506040513d601f19601f820116820180604052508101906119ef9190612474565b915080341115611a9c575f33611a058334612a13565b6040515f81818185875af1925050503d805f8114611a3e576040519150601f19603f3d011682016040523d82523d5f602084013e611a43565b606091505b5050905080611a9a5733611a578334612a13565b6040517faf73b0b20000000000000000000000000000000000000000000000000000000081526001600160a01b0390921660048301526024820152604401610801565b505b935093915050565b611aac611c6d565b6001600160a01b038116611ade576040516335fdcccd60e21b81526001600160a01b0382166004820152602401610801565b5f805473ffffffffffffffffffffffffffffffffffffffff19166001600160a01b0392909216919091179055565b611b14611c6d565b610719611cd4565b611b24611c6d565b610a0a81611d07565b610719611c6d565b7fcd5ed15c6e187e77e9aee88184c21f4f2182ab5827cb3b7e07fbedcd63f033005460ff16610719576040517f8dfc202b00000000000000000000000000000000000000000000000000000000815260040160405180910390fd5b611b9982611d0f565b6040516001600160a01b038316907fbc7cd75a20ee27fd9adebab32041f755214dbc6bffa90cc0225b39da2e5c2d3b905f90a2805115611bdd5761080a8282611d92565b610736611e04565b604080516001600160a01b0385811660248301528416604482015260648082018490528251808303909101815260849091019091526020810180517bffffffffffffffffffffffffffffffffffffffffffffffffffffffff167f23b872dd00000000000000000000000000000000000000000000000000000000179052610703908590611e3c565b7ff0c57e16840df040f15088dc2f81fe391c3923bec73e23a9662efc9c229c6a005468010000000000000000900460ff16610719576040517fd7e6bcf800000000000000000000000000000000000000000000000000000000815260040160405180910390fd5b611cdc611c6d565b7fcd5ed15c6e187e77e9aee88184c21f4f2182ab5827cb3b7e07fbedcd63f03300805460ff19169055565b610fc4611c6d565b806001600160a01b03163b5f03611d4457604051634c9c8ce360e01b81526001600160a01b0382166004820152602401610801565b7f360894a13ba1a3210667c828492db98dca3e2076cc3735a920a3ca505d382bbc805473ffffffffffffffffffffffffffffffffffffffff19166001600160a01b0392909216919091179055565b60605f80846001600160a01b031684604051611dae9190612a26565b5f60405180830381855af49150503d805f8114611de6576040519150601f19603f3d011682016040523d82523d5f602084013e611deb565b606091505b5091509150611dfb858383611eb6565b95945050505050565b3415610719576040517fb398979f00000000000000000000000000000000000000000000000000000000815260040160405180910390fd5b5f611e506001600160a01b03841683611f2e565b905080515f14158015611e74575080806020019051810190611e72919061248b565b155b1561080a576040517f5274afe70000000000000000000000000000000000000000000000000000000081526001600160a01b0384166004820152602401610801565b606082611ecb57611ec682611f3b565b611f27565b8151158015611ee257506001600160a01b0384163b155b15611f24576040517f9996b3150000000000000000000000000000000000000000000000000000000081526001600160a01b0385166004820152602401610801565b50805b9392505050565b6060611f2783835f611f7d565b805115611f4b5780518082602001fd5b6040517fd6bda27500000000000000000000000000000000000000000000000000000000815260040160405180910390fd5b606081471015611fc2576040517fcf47918100000000000000000000000000000000000000000000000000000000815247600482015260248101839052604401610801565b5f80856001600160a01b03168486604051611fdd9190612a26565b5f6040518083038185875af1925050503d805f8114612017576040519150601f19603f3d011682016040523d82523d5f602084013e61201c565b606091505b509150915061202c868383611eb6565b9695505050505050565b5f60208284031215612046575f80fd5b81357fffffffff0000000000000000000000000000000000000000000000000000000081168114611f27575f80fd5b803567ffffffffffffffff8116811461208c575f80fd5b919050565b6001600160a01b0381168114610a0a575f80fd5b5f80604083850312156120b6575f80fd5b6120bf83612075565b915060208301356120cf81612091565b809150509250929050565b5f80604083850312156120eb575f80fd5b82356120bf81612091565b634e487b7160e01b5f52604160045260245ffd5b6040805190810167ffffffffffffffff8111828210171561212d5761212d6120f6565b60405290565b60405160a0810167ffffffffffffffff8111828210171561212d5761212d6120f6565b604051601f8201601f1916810167ffffffffffffffff8111828210171561217f5761217f6120f6565b604052919050565b5f82601f830112612196575f80fd5b813567ffffffffffffffff8111156121b0576121b06120f6565b6121c3601f8201601f1916602001612156565b8181528460208386010111156121d7575f80fd5b816020850160208301375f918101602001919091529392505050565b5f8060408385031215612204575f80fd5b823561220f81612091565b9150602083013567ffffffffffffffff81111561222a575f80fd5b61223685828601612187565b9150509250929050565b5f60208284031215612250575f80fd5b8135611f2781612091565b5f806040838503121561226c575f80fd5b61227583612075565b946020939093013593505050565b8015158114610a0a575f80fd5b5f805f606084860312156122a2575f80fd5b6122ab84612075565b925060208401356122bb81612091565b915060408401356122cb81612283565b809150509250925092565b5f602082840312156122e6575f80fd5b813567ffffffffffffffff8111156122fc575f80fd5b820160a08185031215611f27575f80fd5b5f805f805f60a08688031215612321575f80fd5b61232a86612075565b9450602086013561233a81612091565b9350604086013567ffffffffffffffff80821115612356575f80fd5b61236289838a01612187565b94506060880135915080821115612377575f80fd5b5061238488828901612187565b925050608086013561239581612283565b809150509295509295909350565b5f5b838110156123bd5781810151838201526020016123a5565b50505f910152565b5f81518084526123dc8160208601602086016123a3565b601f01601f19169290920160200192915050565b602081525f611f2760208301846123c5565b5f60208284031215612412575f80fd5b611f2782612075565b5f805f806080858703121561242e575f80fd5b843561243981612091565b9350602085013561244981612091565b9250604085013561245981612091565b9150606085013561246981612091565b939692955090935050565b5f60208284031215612484575f80fd5b5051919050565b5f6020828403121561249b575f80fd5b8151611f2781612283565b600181811c908216806124ba57607f821691505b6020821081036124d857634e487b7160e01b5f52602260045260245ffd5b50919050565b601f82111561080a57805f5260205f20601f840160051c810160208510156125035750805b601f840160051c820191505b81811015612522575f815560010161250f565b5050505050565b815167ffffffffffffffff811115612543576125436120f6565b6125578161255184546124a6565b846124de565b602080601f83116001811461258a575f84156125735750858301515b5f19600386901b1c1916600185901b1785556125e1565b5f85815260208120601f198616915b828110156125b857888601518255948401946001909101908401612599565b50858210156125d557878501515f19600388901b60f8161c191681555b505060018460011b0185555b505050505050565b5f60208083525f84546125fb816124a6565b806020870152604060018084165f811461261c576001811461263857612665565b60ff19851660408a0152604084151560051b8a01019550612665565b895f5260205f205f5b8581101561265c5781548b8201860152908301908801612641565b8a016040019650505b509398975050505050505050565b5f67ffffffffffffffff82111561268c5761268c6120f6565b5060051b60200190565b5f82601f8301126126a5575f80fd5b813560206126ba6126b583612673565b612156565b82815260069290921b840181019181810190868411156126d8575f80fd5b8286015b8481101561271e57604081890312156126f3575f80fd5b6126fb61210a565b813561270681612091565b815281850135858201528352918301916040016126dc565b509695505050505050565b5f60a08236031215612739575f80fd5b612741612133565b8235815261275160208401612075565b6020820152604083013567ffffffffffffffff80821115612770575f80fd5b61277c36838701612187565b60408401526060850135915080821115612794575f80fd5b6127a036838701612187565b606084015260808501359150808211156127b8575f80fd5b506127c536828601612696565b60808301525092915050565b5f82601f8301126127e0575f80fd5b815160206127f06126b583612673565b8083825260208201915060208460051b870101935086841115612811575f80fd5b602086015b8481101561271e5780518352918301918301612816565b5f806040838503121561283e575f80fd5b825167ffffffffffffffff80821115612855575f80fd5b818501915085601f830112612868575f80fd5b815160206128786126b583612673565b82815260059290921b84018101918181019089841115612896575f80fd5b948201945b838610156128bd5785516128ae81612091565b8252948201949082019061289b565b918801519196509093505050808211156128d5575f80fd5b50612236858286016127d1565b634e487b7160e01b5f52603260045260245ffd5b634e487b7160e01b5f52601160045260245ffd5b808201808211156105c9576105c96128f6565b5f604067ffffffffffffffff851683526020604081850152845160a0604086015261294b60e08601826123c5565b905081860151603f198087840301606088015261296883836123c5565b6040890151888203830160808a0152805180835290860194505f9350908501905b808410156129bb57845180516001600160a01b0316835286015186830152938501936001939093019290860190612989565b5060608901516001600160a01b031660a08901526080890151888203830160c08a015295506129ea81876123c5565b9a9950505050505050505050565b5f60208284031215612a08575f80fd5b8151611f2781612091565b818103818111156105c9576105c96128f6565b5f8251612a378184602087016123a3565b919091019291505056fea2646970667358221220030af07390faea4be88da76da7fcddf6cabc230dbbc53d2f5451f3a755a5ea0464736f6c63430008180033","linkReferences":{}},"methodIdentifiers":{"UPGRADE_INTERFACE_VERSION()":"ad3cb1cc","allowlistRecipient(uint64,address,bool)":"84823c90","allowlistSender(uint64,address,bool)":"f039a009","allowlistedRecipients(uint64,address)":"88999627","allowlistedSenders(uint64,address)":"039faeb0","ccipReceive((bytes32,uint64,bytes,bytes,(address,uint256)[]))":"85572ffb","extraArgsPerChain(uint64)":"bf025681","getFee(uint64,address,bytes,bytes,bool)":"944da833","getRouter()":"b0f479a1","initialize(address,address,address,address)":"f8c8765e","owner()":"8da5cb5b","pause()":"8456cb59","paused()":"5c975abb","proxiableUUID()":"52d1902d","renounceOwnership()":"715018a6","s_linkToken()":"7725135b","s_rareToken()":"733c52f9","send(uint64,address,bytes,bytes,bool)":"89590ca8","setExtraArgs(uint64,uint256)":"569236eb","supportsInterface(bytes4)":"01ffc9a7","transferOwnership(address)":"f2fde38b","unpause()":"3f4ba83a","upgradeToAndCall(address,bytes)":"4f1ef286","withdraw(address)":"51cff8d9","withdrawToken(address,address)":"3aeac4e1"},"id":6}