{"abi":[{"type":"receive","stateMutability":"payable"},{"type":"function","name":"UPGRADE_INTERFACE_VERSION","inputs":[],"outputs":[{"name":"","type":"string","internalType":"string"}],"stateMutability":"view"},{"type":"function","name":"allowlistRecipient","inputs":[{"name":"_destinationChainSelector","type":"uint64","internalType":"uint64"},{"name":"_destinationChainRecipient","type":"address","internalType":"address"},{"name":"allowed","type":"bool","internalType":"bool"}],"outputs":[],"stateMutability":"nonpayable"},{"type":"function","name":"allowlistSender","inputs":[{"name":"_sourceChainSelector","type":"uint64","internalType":"uint64"},{"name":"_sourceChainSender","type":"address","internalType":"address"},{"name":"allowed","type":"bool","internalType":"bool"}],"outputs":[],"stateMutability":"nonpayable"},{"type":"function","name":"allowlistedRecipients","inputs":[{"name":"","type":"uint64","internalType":"uint64"},{"name":"","type":"address","internalType":"address"}],"outputs":[{"name":"","type":"bool","internalType":"bool"}],"stateMutability":"view"},{"type":"function","name":"allowlistedSenders","inputs":[{"name":"","type":"uint64","internalType":"uint64"},{"name":"","type":"address","internalType":"address"}],"outputs":[{"name":"","type":"bool","internalType":"bool"}],"stateMutability":"view"},{"type":"function","name":"ccipReceive","inputs":[{"name":"message","type":"tuple","internalType":"struct Client.Any2EVMMessage","components":[{"name":"messageId","type":"bytes32","internalType":"bytes32"},{"name":"sourceChainSelector","type":"uint64","internalType":"uint64"},{"name":"sender","type":"bytes","internalType":"bytes"},{"name":"data","type":"bytes","internalType":"bytes"},{"name":"destTokenAmounts","type":"tuple[]","internalType":"struct Client.EVMTokenAmount[]","components":[{"name":"token","type":"address","internalType":"address"},{"name":"amount","type":"uint256","internalType":"uint256"}]}]}],"outputs":[],"stateMutability":"nonpayable"},{"type":"function","name":"extraArgsPerChain","inputs":[{"name":"","type":"uint64","internalType":"uint64"}],"outputs":[{"name":"","type":"bytes","internalType":"bytes"}],"stateMutability":"view"},{"type":"function","name":"getFee","inputs":[{"name":"_destinationChainSelector","type":"uint64","internalType":"uint64"},{"name":"_destinationChainRecipient","type":"address","internalType":"address"},{"name":"_distributionData","type":"bytes","internalType":"bytes"},{"name":"_extraArgs","type":"bytes","internalType":"bytes"},{"name":"_payFeesInLink","type":"bool","internalType":"bool"}],"outputs":[{"name":"fee","type":"uint256","internalType":"uint256"}],"stateMutability":"view"},{"type":"function","name":"getRouter","inputs":[],"outputs":[{"name":"","type":"address","internalType":"address"}],"stateMutability":"view"},{"type":"function","name":"initialize","inputs":[{"name":"_router","type":"address","internalType":"address"},{"name":"_link","type":"address","internalType":"address"},{"name":"_rare","type":"address","internalType":"address"},{"name":"admin","type":"address","internalType":"address"}],"outputs":[],"stateMutability":"nonpayable"},{"type":"function","name":"owner","inputs":[],"outputs":[{"name":"","type":"address","internalType":"address"}],"stateMutability":"view"},{"type":"function","name":"pause","inputs":[],"outputs":[],"stateMutability":"nonpayable"},{"type":"function","name":"paused","inputs":[],"outputs":[{"name":"","type":"bool","internalType":"bool"}],"stateMutability":"view"},{"type":"function","name":"proxiableUUID","inputs":[],"outputs":[{"name":"","type":"bytes32","internalType":"bytes32"}],"stateMutability":"view"},{"type":"function","name":"renounceOwnership","inputs":[],"outputs":[],"stateMutability":"nonpayable"},{"type":"function","name":"s_linkToken","inputs":[],"outputs":[{"name":"","type":"address","internalType":"address"}],"stateMutability":"view"},{"type":"function","name":"s_rareToken","inputs":[],"outputs":[{"name":"","type":"address","internalType":"address"}],"stateMutability":"view"},{"type":"function","name":"send","inputs":[{"name":"_destinationChainSelector","type":"uint64","internalType":"uint64"},{"name":"_destinationChainRecipient","type":"address","internalType":"address"},{"name":"_distributionData","type":"bytes","internalType":"bytes"},{"name":"_extraArgs","type":"bytes","internalType":"bytes"},{"name":"_payFeesInLink","type":"bool","internalType":"bool"}],"outputs":[],"stateMutability":"payable"},{"type":"function","name":"setExtraArgs","inputs":[{"name":"_destinationChainSelector","type":"uint64","internalType":"uint64"},{"name":"_gasLimit","type":"uint256","internalType":"uint256"}],"outputs":[],"stateMutability":"nonpayable"},{"type":"function","name":"supportsInterface","inputs":[{"name":"interfaceId","type":"bytes4","internalType":"bytes4"}],"outputs":[{"name":"","type":"bool","internalType":"bool"}],"stateMutability":"view"},{"type":"function","name":"transferOwnership","inputs":[{"name":"newOwner","type":"address","internalType":"address"}],"outputs":[],"stateMutability":"nonpayable"},{"type":"function","name":"unpause","inputs":[],"outputs":[],"stateMutability":"nonpayable"},{"type":"function","name":"upgradeToAndCall","inputs":[{"name":"newImplementation","type":"address","internalType":"address"},{"name":"data","type":"bytes","internalType":"bytes"}],"outputs":[],"stateMutability":"payable"},{"type":"function","name":"withdraw","inputs":[{"name":"_beneficiary","type":"address","internalType":"address payable"}],"outputs":[],"stateMutability":"nonpayable"},{"type":"event","name":"ExtraArgsSet","inputs":[{"name":"destinationChainSelector","type":"uint64","indexed":true,"internalType":"uint64"},{"name":"extraArgs","type":"bytes","indexed":false,"internalType":"bytes"}],"anonymous":false},{"type":"event","name":"Initialized","inputs":[{"name":"version","type":"uint64","indexed":false,"internalType":"uint64"}],"anonymous":false},{"type":"event","name":"MessageReceived","inputs":[{"name":"messageId","type":"bytes32","indexed":true,"internalType":"bytes32"},{"name":"sourceChainSelector","type":"uint64","indexed":true,"internalType":"uint64"},{"name":"sourceChainSender","type":"address","indexed":true,"internalType":"address"}],"anonymous":false},{"type":"event","name":"MessageSent","inputs":[{"name":"messageId","type":"bytes32","indexed":true,"internalType":"bytes32"},{"name":"destinationChainSelector","type":"uint64","indexed":true,"internalType":"uint64"},{"name":"destinationChainRecipient","type":"address","indexed":true,"internalType":"address"},{"name":"fee","type":"uint256","indexed":false,"internalType":"uint256"},{"name":"payFeesInLink","type":"bool","indexed":false,"internalType":"bool"}],"anonymous":false},{"type":"event","name":"OwnershipTransferred","inputs":[{"name":"previousOwner","type":"address","indexed":true,"internalType":"address"},{"name":"newOwner","type":"address","indexed":true,"internalType":"address"}],"anonymous":false},{"type":"event","name":"Paused","inputs":[{"name":"account","type":"address","indexed":false,"internalType":"address"}],"anonymous":false},{"type":"event","name":"RecipientAllowlisted","inputs":[{"name":"destinationChainSelector","type":"uint64","indexed":true,"internalType":"uint64"},{"name":"destinationChainRecipient","type":"address","indexed":true,"internalType":"address"},{"name":"allowed","type":"bool","indexed":false,"internalType":"bool"}],"anonymous":false},{"type":"event","name":"SenderAllowlisted","inputs":[{"name":"sourceChainSelector","type":"uint64","indexed":true,"internalType":"uint64"},{"name":"sourceChainSender","type":"address","indexed":true,"internalType":"address"},{"name":"allowed","type":"bool","indexed":false,"internalType":"bool"}],"anonymous":false},{"type":"event","name":"Unpaused","inputs":[{"name":"account","type":"address","indexed":false,"internalType":"address"}],"anonymous":false},{"type":"event","name":"Upgraded","inputs":[{"name":"implementation","type":"address","indexed":true,"internalType":"address"}],"anonymous":false},{"type":"error","name":"AddressEmptyCode","inputs":[{"name":"target","type":"address","internalType":"address"}]},{"type":"error","name":"ERC1967InvalidImplementation","inputs":[{"name":"implementation","type":"address","internalType":"address"}]},{"type":"error","name":"ERC1967NonPayable","inputs":[]},{"type":"error","name":"EnforcedPause","inputs":[]},{"type":"error","name":"ExpectedPause","inputs":[]},{"type":"error","name":"FailedCall","inputs":[]},{"type":"error","name":"FailedToWithdrawEth","inputs":[{"name":"sender","type":"address","internalType":"address"},{"name":"beneficiary","type":"address","internalType":"address"},{"name":"amount","type":"uint256","internalType":"uint256"}]},{"type":"error","name":"InsufficientBalance","inputs":[{"name":"balance","type":"uint256","internalType":"uint256"},{"name":"needed","type":"uint256","internalType":"uint256"}]},{"type":"error","name":"InsufficientEthForFee","inputs":[{"name":"ethSent","type":"uint256","internalType":"uint256"},{"name":"fee","type":"uint256","internalType":"uint256"}]},{"type":"error","name":"InvalidInitialization","inputs":[]},{"type":"error","name":"InvalidRouter","inputs":[{"name":"router","type":"address","internalType":"address"}]},{"type":"error","name":"NotInAllowlist","inputs":[{"name":"chainSelector","type":"uint64","internalType":"uint64"},{"name":"account","type":"address","internalType":"address"}]},{"type":"error","name":"NotInitializing","inputs":[]},{"type":"error","name":"NothingToWithdraw","inputs":[]},{"type":"error","name":"OwnableInvalidOwner","inputs":[{"name":"owner","type":"address","internalType":"address"}]},{"type":"error","name":"OwnableUnauthorizedAccount","inputs":[{"name":"account","type":"address","internalType":"address"}]},{"type":"error","name":"RecipientsAndAmountsLengthMismatch","inputs":[]},{"type":"error","name":"RefundFailed","inputs":[{"name":"recipient","type":"address","internalType":"address"},{"name":"amount","type":"uint256","internalType":"uint256"}]},{"type":"error","name":"SafeERC20FailedOperation","inputs":[{"name":"token","type":"address","internalType":"address"}]},{"type":"error","name":"UUPSUnauthorizedCallContext","inputs":[]},{"type":"error","name":"UUPSUnsupportedProxiableUUID","inputs":[{"name":"slot","type":"bytes32","internalType":"bytes32"}]},{"type":"error","name":"ZeroAddressUnsupported","inputs":[]}],"bytecode":{"object":"0x60a06040523060805234801562000014575f80fd5b506200001f62000025565b620000d9565b7ff0c57e16840df040f15088dc2f81fe391c3923bec73e23a9662efc9c229c6a00805468010000000000000000900460ff1615620000765760405163f92ee8a960e01b815260040160405180910390fd5b80546001600160401b0390811614620000d65780546001600160401b0319166001600160401b0390811782556040519081527fc7f505b2f371ae2175ee4913f4499e1f2633a7b5936321eed1cdaeb6115181d29060200160405180910390a15b50565b6080516129fa620001005f395f81816111c8015281816111f1015261136f01526129fa5ff3fe608060405260043610610186575f3560e01c806384823c90116100d1578063ad3cb1cc1161007c578063f039a00911610057578063f039a009146104b0578063f2fde38b146104cf578063f8c8765e146104ee575f80fd5b8063ad3cb1cc14610420578063b0f479a114610475578063bf02568114610491575f80fd5b806389590ca8116100ac57806389590ca8146103b25780638da5cb5b146103c5578063944da83314610401575f80fd5b806384823c901461033b57806385572ffb1461035a5780638899962714610379575f80fd5b8063569236eb11610131578063733c52f91161010c578063733c52f9146102d15780637725135b146103085780638456cb5914610327575f80fd5b8063569236eb146102685780635c975abb14610287578063715018a6146102bd575f80fd5b80634f1ef286116101615780634f1ef2861461021457806351cff8d91461022757806352d1902d14610246575f80fd5b806301ffc9a714610191578063039faeb0146101c55780633f4ba83a146101fe575f80fd5b3661018d57005b5f80fd5b34801561019c575f80fd5b506101b06101ab366004611fd9565b61050d565b60405190151581526020015b60405180910390f35b3480156101d0575f80fd5b506101b06101df366004612048565b600260209081525f928352604080842090915290825290205460ff1681565b348015610209575f80fd5b506102126105a5565b005b61021261022236600461217a565b6105b7565b348015610232575f80fd5b506102126102413660046121c7565b6105d6565b348015610251575f80fd5b5061025a6106c4565b6040519081526020016101bc565b348015610273575f80fd5b506102126102823660046121e2565b6106f2565b348015610292575f80fd5b507fcd5ed15c6e187e77e9aee88184c21f4f2182ab5827cb3b7e07fbedcd63f033005460ff166101b0565b3480156102c8575f80fd5b506102126107e2565b3480156102dc575f80fd5b506005546102f0906001600160a01b031681565b6040516001600160a01b0390911681526020016101bc565b348015610313575f80fd5b506004546102f0906001600160a01b031681565b348015610332575f80fd5b506102126107f3565b348015610346575f80fd5b50610212610355366004612217565b610803565b348015610365575f80fd5b5061021261037436600461225d565b610882565b348015610384575f80fd5b506101b0610393366004612048565b600160209081525f928352604080842090915290825290205460ff1681565b6102126103c0366004612294565b6108c2565b3480156103d0575f80fd5b507f9016d09d72d40fdae2fd8ceac6b6234c7706214fd39c1cd1e609a0528c199300546001600160a01b03166102f0565b34801561040c575f80fd5b5061025a61041b366004612294565b610b9c565b34801561042b575f80fd5b506104686040518060400160405280600581526020017f352e302e3000000000000000000000000000000000000000000000000000000081525081565b6040516101bc9190612377565b348015610480575f80fd5b505f546001600160a01b03166102f0565b34801561049c575f80fd5b506104686104ab366004612389565b610d6e565b3480156104bb575f80fd5b506102126104ca366004612217565b610e05565b3480156104da575f80fd5b506102126104e93660046121c7565b610e7b565b3480156104f9575f80fd5b506102126105083660046123a2565b610ece565b5f7fffffffff0000000000000000000000000000000000000000000000000000000082167f85572ffb00000000000000000000000000000000000000000000000000000000148061059f57507fffffffff0000000000000000000000000000000000000000000000000000000082167f01ffc9a700000000000000000000000000000000000000000000000000000000145b92915050565b6105ad6110d7565b6105b561114b565b565b6105bf6111bd565b6105c882611274565b6105d2828261127c565b5050565b6105de6110d7565b475f819003610619576040517fd0d04f6000000000000000000000000000000000000000000000000000000000815260040160405180910390fd5b5f826001600160a01b0316826040515f6040518083038185875af1925050503d805f8114610662576040519150601f19603f3d011682016040523d82523d5f602084013e610667565b606091505b50509050806106bf576040517f9d11f5630000000000000000000000000000000000000000000000000000000081523360048201526001600160a01b0384166024820152604481018390526064015b60405180910390fd5b505050565b5f6106cd611364565b507f360894a13ba1a3210667c828492db98dca3e2076cc3735a920a3ca505d382bbc90565b6106fa6110d7565b60408051602080820183529083905281516024808201859052835180830390910181526044909101909252810180517bffffffffffffffffffffffffffffffffffffffffffffffffffffffff167f97a657c90000000000000000000000000000000000000000000000000000000017905267ffffffffffffffff83165f9081526003602052604090209061078e908261247e565b5067ffffffffffffffff82165f818152600360205260409081902090517f25f4887ac9329371411c2984321de49ca898b00baf4b256827a238b920b28033916107d69161253a565b60405180910390a25050565b6107ea6110d7565b6105b55f6113ad565b6107fb6110d7565b6105b561142a565b61080b6110d7565b67ffffffffffffffff83165f8181526001602090815260408083206001600160a01b03871680855290835292819020805460ff191686151590811790915590519081529192917fee43ac303444b0c8d82e2405506aaa0bde910d74c0397efcd0c3e6753d544ca891015b60405180910390a3505050565b5f546001600160a01b031633146108ae576040516335fdcccd60e21b81523360048201526024016106b6565b6108bf6108ba8261267a565b611485565b50565b67ffffffffffffffff85165f9081526001602090815260408083206001600160a01b03881684529091529020548590859060ff1661092e57604051630b15942d60e41b815267ffffffffffffffff831660048201526001600160a01b03821660248201526044016106b6565b61093661160e565b5f808680602001905181019061094c919061277e565b91509150805182511461098b576040517f441d33a100000000000000000000000000000000000000000000000000000000815260040160405180910390fd5b5f805b82518110156109c6578281815181106109a9576109a9612833565b6020026020010151826109bc919061285b565b915060010161098e565b506109d1338261166a565b6040805160a0810182526001600160a01b038b1660c0808301919091528251808303909101815260e082018352815260208082018b905282515f8082529181018452909282019083610a44565b604080518082019091525f8082526020820152815260200190600190039081610a1e5790505b50815260200188610a55575f610a62565b6004546001600160a01b03165b6001600160a01b031681526020015f8a5111610b1c5767ffffffffffffffff8d165f9081526003602052604090208054610a9b906123fb565b80601f0160208091040260200160405190810160405280929190818152602001828054610ac7906123fb565b8015610b125780601f10610ae957610100808354040283529160200191610b12565b820191905f5260205f20905b815481529060010190602001808311610af557829003601f168201915b5050505050610b1e565b895b905290505f80610b2f8d848b6116e9565b915091508b6001600160a01b03168d67ffffffffffffffff16837f1db8b02534131df99195eac316e72e12017fac36b8abdecd97b7d93b39bf7bca848d604051610b859291909182521515602082015260400190565b60405180910390a450505050505050505050505050565b6040805160a081019091526001600160a01b03851660c08201525f9081908060e0810160408051808303601f19018152918152908252602080830189905281515f8082529181018352929091019190610c16565b604080518082019091525f8082526020820152815260200190600190039081610bf05790505b50815260200184610c27575f610c34565b6004546001600160a01b03165b6001600160a01b031681526020015f865111610cee5767ffffffffffffffff89165f9081526003602052604090208054610c6d906123fb565b80601f0160208091040260200160405190810160405280929190818152602001828054610c99906123fb565b8015610ce45780601f10610cbb57610100808354040283529160200191610ce4565b820191905f5260205f20905b815481529060010190602001808311610cc757829003601f168201915b5050505050610cf0565b855b90525f546040516320487ded60e01b81529192506001600160a01b0316906320487ded90610d24908a90859060040161286e565b602060405180830381865afa158015610d3f573d5f803e3d5ffd5b505050506040513d601f19601f82011682018060405250810190610d639190612949565b979650505050505050565b60036020525f908152604090208054610d86906123fb565b80601f0160208091040260200160405190810160405280929190818152602001828054610db2906123fb565b8015610dfd5780601f10610dd457610100808354040283529160200191610dfd565b820191905f5260205f20905b815481529060010190602001808311610de057829003601f168201915b505050505081565b610e0d6110d7565b67ffffffffffffffff83165f8181526002602090815260408083206001600160a01b03871680855290835292819020805460ff191686151590811790915590519081529192917f9a239a399a3630c36025f8c4b64b701240016edc1e1fdb83741c0c52f5d743d79101610875565b610e836110d7565b6001600160a01b038116610ec5576040517f1e4fbdf70000000000000000000000000000000000000000000000000000000081525f60048201526024016106b6565b6108bf816113ad565b7ff0c57e16840df040f15088dc2f81fe391c3923bec73e23a9662efc9c229c6a00805468010000000000000000810460ff16159067ffffffffffffffff165f81158015610f185750825b90505f8267ffffffffffffffff166001148015610f345750303b155b905081158015610f42575080155b15610f79576040517ff92ee8a900000000000000000000000000000000000000000000000000000000815260040160405180910390fd5b845467ffffffffffffffff191660011785558315610fad57845468ff00000000000000001916680100000000000000001785555b6001600160a01b038916610fd457604051637827912560e01b815260040160405180910390fd5b6001600160a01b038816610ffb57604051637827912560e01b815260040160405180910390fd5b6001600160a01b03871661102257604051637827912560e01b815260040160405180910390fd5b61102b896119ef565b611033611a57565b61103c86611a67565b611044611a78565b600480546001600160a01b03808b1673ffffffffffffffffffffffffffffffffffffffff199283161790925560058054928a169290911691909117905583156110cc57845468ff000000000000000019168555604051600181527fc7f505b2f371ae2175ee4913f4499e1f2633a7b5936321eed1cdaeb6115181d29060200160405180910390a15b505050505050505050565b336111097f9016d09d72d40fdae2fd8ceac6b6234c7706214fd39c1cd1e609a0528c199300546001600160a01b031690565b6001600160a01b0316146105b5576040517f118cdaa70000000000000000000000000000000000000000000000000000000081523360048201526024016106b6565b611153611a80565b7fcd5ed15c6e187e77e9aee88184c21f4f2182ab5827cb3b7e07fbedcd63f03300805460ff191681557f5db9ee0a495bf2e6ff9c91a7834c1ba4fdd244a5e8aa4e537bd38aeae4b073aa335b6040516001600160a01b03909116815260200160405180910390a150565b306001600160a01b037f000000000000000000000000000000000000000000000000000000000000000016148061125657507f00000000000000000000000000000000000000000000000000000000000000006001600160a01b031661124a7f360894a13ba1a3210667c828492db98dca3e2076cc3735a920a3ca505d382bbc546001600160a01b031690565b6001600160a01b031614155b156105b55760405163703e46dd60e11b815260040160405180910390fd5b6108bf6110d7565b816001600160a01b03166352d1902d6040518163ffffffff1660e01b8152600401602060405180830381865afa9250505080156112d6575060408051601f3d908101601f191682019092526112d391810190612949565b60015b6112fe57604051634c9c8ce360e01b81526001600160a01b03831660048201526024016106b6565b7f360894a13ba1a3210667c828492db98dca3e2076cc3735a920a3ca505d382bbc811461135a576040517faa1d49a4000000000000000000000000000000000000000000000000000000008152600481018290526024016106b6565b6106bf8383611adb565b306001600160a01b037f000000000000000000000000000000000000000000000000000000000000000016146105b55760405163703e46dd60e11b815260040160405180910390fd5b7f9016d09d72d40fdae2fd8ceac6b6234c7706214fd39c1cd1e609a0528c199300805473ffffffffffffffffffffffffffffffffffffffff1981166001600160a01b03848116918217845560405192169182907f8be0079c531659141344cd1fd0a4f28419497f9722a3daafe3b4186f6b6457e0905f90a3505050565b61143261160e565b7fcd5ed15c6e187e77e9aee88184c21f4f2182ab5827cb3b7e07fbedcd63f03300805460ff191660011781557f62e78cea01bee320cd4e420270b5ea74000d11b0c9f74754ebdbfc544b05a2583361119f565b5f546001600160a01b031633146114b1576040516335fdcccd60e21b81523360048201526024016106b6565b806020015181604001518060200190518101906114ce9190612960565b67ffffffffffffffff82165f9081526002602090815260408083206001600160a01b038516845290915290205460ff1661153657604051630b15942d60e41b815267ffffffffffffffff831660048201526001600160a01b03821660248201526044016106b6565b5f808460600151806020019051810190611550919061277e565b815191935091505f5b818110156115a55761159d84828151811061157657611576612833565b602002602001015184838151811061159057611590612833565b6020026020010151611b30565b600101611559565b5085604001518060200190518101906115be9190612960565b6001600160a01b0316866020015167ffffffffffffffff16875f01517fcde44b4f1d4a51abfed5cbe2b4ae24632539d99980c5988af6d4e2eb990c235a60405160405180910390a4505050505050565b7fcd5ed15c6e187e77e9aee88184c21f4f2182ab5827cb3b7e07fbedcd63f033005460ff16156105b5576040517fd93c066500000000000000000000000000000000000000000000000000000000815260040160405180910390fd5b6005546040517f79cc67900000000000000000000000000000000000000000000000000000000081526001600160a01b03848116600483015260248201849052909116906379cc6790906044015b5f604051808303815f87803b1580156116cf575f80fd5b505af11580156116e1573d5f803e3d5ffd5b505050505050565b5f80546040516320487ded60e01b815282916001600160a01b0316906320487ded9061171b908890889060040161286e565b602060405180830381865afa158015611736573d5f803e3d5ffd5b505050506040513d601f19601f8201168201806040525081019061175a9190612949565b905082156118835760045461177a906001600160a01b0316333084611b82565b600480545f546040517f095ea7b30000000000000000000000000000000000000000000000000000000081526001600160a01b039182169381019390935260248301849052169063095ea7b3906044016020604051808303815f875af11580156117e6573d5f803e3d5ffd5b505050506040513d601f19601f8201168201806040525081019061180a919061297b565b505f546040516396f4e9f960e01b81526001600160a01b03909116906396f4e9f99061183c908890889060040161286e565b6020604051808303815f875af1158015611858573d5f803e3d5ffd5b505050506040513d601f19601f8201168201806040525081019061187c9190612949565b91506119e7565b803410156118c6576040517fc9f9b36f000000000000000000000000000000000000000000000000000000008152346004820152602481018290526044016106b6565b5f546040516396f4e9f960e01b81526001600160a01b03909116906396f4e9f99083906118f9908990899060040161286e565b60206040518083038185885af1158015611915573d5f803e3d5ffd5b50505050506040513d601f19601f8201168201806040525081019061193a9190612949565b9150803411156119e7575f336119508334612996565b6040515f81818185875af1925050503d805f8114611989576040519150601f19603f3d011682016040523d82523d5f602084013e61198e565b606091505b50509050806119e557336119a28334612996565b6040517faf73b0b20000000000000000000000000000000000000000000000000000000081526001600160a01b03909216600483015260248201526044016106b6565b505b935093915050565b6119f7611c10565b6001600160a01b038116611a29576040516335fdcccd60e21b81526001600160a01b03821660048201526024016106b6565b5f805473ffffffffffffffffffffffffffffffffffffffff19166001600160a01b0392909216919091179055565b611a5f611c10565b6105b5611c77565b611a6f611c10565b6108bf81611caa565b6105b5611c10565b7fcd5ed15c6e187e77e9aee88184c21f4f2182ab5827cb3b7e07fbedcd63f033005460ff166105b5576040517f8dfc202b00000000000000000000000000000000000000000000000000000000815260040160405180910390fd5b611ae482611cb2565b6040516001600160a01b038316907fbc7cd75a20ee27fd9adebab32041f755214dbc6bffa90cc0225b39da2e5c2d3b905f90a2805115611b28576106bf8282611d35565b6105d2611da7565b6005546040517f40c10f190000000000000000000000000000000000000000000000000000000081526001600160a01b03848116600483015260248201849052909116906340c10f19906044016116b8565b604080516001600160a01b0385811660248301528416604482015260648082018490528251808303909101815260849091019091526020810180517bffffffffffffffffffffffffffffffffffffffffffffffffffffffff167f23b872dd00000000000000000000000000000000000000000000000000000000179052611c0a908590611ddf565b50505050565b7ff0c57e16840df040f15088dc2f81fe391c3923bec73e23a9662efc9c229c6a005468010000000000000000900460ff166105b5576040517fd7e6bcf800000000000000000000000000000000000000000000000000000000815260040160405180910390fd5b611c7f611c10565b7fcd5ed15c6e187e77e9aee88184c21f4f2182ab5827cb3b7e07fbedcd63f03300805460ff19169055565b610e83611c10565b806001600160a01b03163b5f03611ce757604051634c9c8ce360e01b81526001600160a01b03821660048201526024016106b6565b7f360894a13ba1a3210667c828492db98dca3e2076cc3735a920a3ca505d382bbc805473ffffffffffffffffffffffffffffffffffffffff19166001600160a01b0392909216919091179055565b60605f80846001600160a01b031684604051611d5191906129a9565b5f60405180830381855af49150503d805f8114611d89576040519150601f19603f3d011682016040523d82523d5f602084013e611d8e565b606091505b5091509150611d9e858383611e59565b95945050505050565b34156105b5576040517fb398979f00000000000000000000000000000000000000000000000000000000815260040160405180910390fd5b5f611df36001600160a01b03841683611ed1565b905080515f14158015611e17575080806020019051810190611e15919061297b565b155b156106bf576040517f5274afe70000000000000000000000000000000000000000000000000000000081526001600160a01b03841660048201526024016106b6565b606082611e6e57611e6982611ede565b611eca565b8151158015611e8557506001600160a01b0384163b155b15611ec7576040517f9996b3150000000000000000000000000000000000000000000000000000000081526001600160a01b03851660048201526024016106b6565b50805b9392505050565b6060611eca83835f611f20565b805115611eee5780518082602001fd5b6040517fd6bda27500000000000000000000000000000000000000000000000000000000815260040160405180910390fd5b606081471015611f65576040517fcf479181000000000000000000000000000000000000000000000000000000008152476004820152602481018390526044016106b6565b5f80856001600160a01b03168486604051611f8091906129a9565b5f6040518083038185875af1925050503d805f8114611fba576040519150601f19603f3d011682016040523d82523d5f602084013e611fbf565b606091505b5091509150611fcf868383611e59565b9695505050505050565b5f60208284031215611fe9575f80fd5b81357fffffffff0000000000000000000000000000000000000000000000000000000081168114611eca575f80fd5b803567ffffffffffffffff8116811461202f575f80fd5b919050565b6001600160a01b03811681146108bf575f80fd5b5f8060408385031215612059575f80fd5b61206283612018565b9150602083013561207281612034565b809150509250929050565b634e487b7160e01b5f52604160045260245ffd5b6040805190810167ffffffffffffffff811182821017156120b4576120b461207d565b60405290565b60405160a0810167ffffffffffffffff811182821017156120b4576120b461207d565b604051601f8201601f1916810167ffffffffffffffff811182821017156121065761210661207d565b604052919050565b5f82601f83011261211d575f80fd5b813567ffffffffffffffff8111156121375761213761207d565b61214a601f8201601f19166020016120dd565b81815284602083860101111561215e575f80fd5b816020850160208301375f918101602001919091529392505050565b5f806040838503121561218b575f80fd5b823561219681612034565b9150602083013567ffffffffffffffff8111156121b1575f80fd5b6121bd8582860161210e565b9150509250929050565b5f602082840312156121d7575f80fd5b8135611eca81612034565b5f80604083850312156121f3575f80fd5b6121fc83612018565b946020939093013593505050565b80151581146108bf575f80fd5b5f805f60608486031215612229575f80fd5b61223284612018565b9250602084013561224281612034565b915060408401356122528161220a565b809150509250925092565b5f6020828403121561226d575f80fd5b813567ffffffffffffffff811115612283575f80fd5b820160a08185031215611eca575f80fd5b5f805f805f60a086880312156122a8575f80fd5b6122b186612018565b945060208601356122c181612034565b9350604086013567ffffffffffffffff808211156122dd575f80fd5b6122e989838a0161210e565b945060608801359150808211156122fe575f80fd5b5061230b8882890161210e565b925050608086013561231c8161220a565b809150509295509295909350565b5f5b8381101561234457818101518382015260200161232c565b50505f910152565b5f815180845261236381602086016020860161232a565b601f01601f19169290920160200192915050565b602081525f611eca602083018461234c565b5f60208284031215612399575f80fd5b611eca82612018565b5f805f80608085870312156123b5575f80fd5b84356123c081612034565b935060208501356123d081612034565b925060408501356123e081612034565b915060608501356123f081612034565b939692955090935050565b600181811c9082168061240f57607f821691505b60208210810361242d57634e487b7160e01b5f52602260045260245ffd5b50919050565b601f8211156106bf57805f5260205f20601f840160051c810160208510156124585750805b601f840160051c820191505b81811015612477575f8155600101612464565b5050505050565b815167ffffffffffffffff8111156124985761249861207d565b6124ac816124a684546123fb565b84612433565b602080601f8311600181146124df575f84156124c85750858301515b5f19600386901b1c1916600185901b1785556116e1565b5f85815260208120601f198616915b8281101561250d578886015182559484019460019091019084016124ee565b508582101561252a57878501515f19600388901b60f8161c191681555b5050505050600190811b01905550565b5f60208083525f845461254c816123fb565b806020870152604060018084165f811461256d5760018114612589576125b6565b60ff19851660408a0152604084151560051b8a010195506125b6565b895f5260205f205f5b858110156125ad5781548b8201860152908301908801612592565b8a016040019650505b509398975050505050505050565b5f67ffffffffffffffff8211156125dd576125dd61207d565b5060051b60200190565b5f82601f8301126125f6575f80fd5b8135602061260b612606836125c4565b6120dd565b82815260069290921b84018101918181019086841115612629575f80fd5b8286015b8481101561266f5760408189031215612644575f80fd5b61264c612091565b813561265781612034565b8152818501358582015283529183019160400161262d565b509695505050505050565b5f60a0823603121561268a575f80fd5b6126926120ba565b823581526126a260208401612018565b6020820152604083013567ffffffffffffffff808211156126c1575f80fd5b6126cd3683870161210e565b604084015260608501359150808211156126e5575f80fd5b6126f13683870161210e565b60608401526080850135915080821115612709575f80fd5b50612716368286016125e7565b60808301525092915050565b5f82601f830112612731575f80fd5b81516020612741612606836125c4565b8083825260208201915060208460051b870101935086841115612762575f80fd5b602086015b8481101561266f5780518352918301918301612767565b5f806040838503121561278f575f80fd5b825167ffffffffffffffff808211156127a6575f80fd5b818501915085601f8301126127b9575f80fd5b815160206127c9612606836125c4565b82815260059290921b840181019181810190898411156127e7575f80fd5b948201945b8386101561280e5785516127ff81612034565b825294820194908201906127ec565b91880151919650909350505080821115612826575f80fd5b506121bd85828601612722565b634e487b7160e01b5f52603260045260245ffd5b634e487b7160e01b5f52601160045260245ffd5b8082018082111561059f5761059f612847565b5f604067ffffffffffffffff851683526020604081850152845160a0604086015261289c60e086018261234c565b905081860151603f19808784030160608801526128b9838361234c565b6040890151888203830160808a0152805180835290860194505f9350908501905b8084101561290c57845180516001600160a01b03168352860151868301529385019360019390930192908601906128da565b5060608901516001600160a01b031660a08901526080890151888203830160c08a0152955061293b818761234c565b9a9950505050505050505050565b5f60208284031215612959575f80fd5b5051919050565b5f60208284031215612970575f80fd5b8151611eca81612034565b5f6020828403121561298b575f80fd5b8151611eca8161220a565b8181038181111561059f5761059f612847565b5f82516129ba81846020870161232a565b919091019291505056fea2646970667358221220d546dfd70d2d52e132ae5d4c3ba985b0af456a84b1c84ec129a6f3934df8d5a364736f6c63430008180033","linkReferences":{}},"methodIdentifiers":{"UPGRADE_INTERFACE_VERSION()":"ad3cb1cc","allowlistRecipient(uint64,address,bool)":"84823c90","allowlistSender(uint64,address,bool)":"f039a009","allowlistedRecipients(uint64,address)":"88999627","allowlistedSenders(uint64,address)":"039faeb0","ccipReceive((bytes32,uint64,bytes,bytes,(address,uint256)[]))":"85572ffb","extraArgsPerChain(uint64)":"bf025681","getFee(uint64,address,bytes,bytes,bool)":"944da833","getRouter()":"b0f479a1","initialize(address,address,address,address)":"f8c8765e","owner()":"8da5cb5b","pause()":"8456cb59","paused()":"5c975abb","proxiableUUID()":"52d1902d","renounceOwnership()":"715018a6","s_linkToken()":"7725135b","s_rareToken()":"733c52f9","send(uint64,address,bytes,bytes,bool)":"89590ca8","setExtraArgs(uint64,uint256)":"569236eb","supportsInterface(bytes4)":"01ffc9a7","transferOwnership(address)":"f2fde38b","unpause()":"3f4ba83a","upgradeToAndCall(address,bytes)":"4f1ef286","withdraw(address)":"51cff8d9"},"id":2}